{
  "_format": "hh-sol-artifact-1",
  "contractName": "DepositContract",
  "sourceName": "contracts/ERC721Token.sol",
  "abi": [
    {
      "inputs": [
        {
          "internalType": "contract IERC20",
          "name": "_erc20Token",
          "type": "address"
        },
        {
          "internalType": "contract IMyERC721",
          "name": "_erc721Token",
          "type": "address"
        }
      ],
      "stateMutability": "nonpayable",
      "type": "constructor"
    },
    {
      "inputs": [
        {
          "internalType": "uint256",
          "name": "amount",
          "type": "uint256"
        }
      ],
      "name": "deposit",
      "outputs": [],
      "stateMutability": "nonpayable",
      "type": "function"
    },
    {
      "inputs": [
        {
          "internalType": "address",
          "name": "",
          "type": "address"
        }
      ],
      "name": "deposits",
      "outputs": [
        {
          "internalType": "uint256",
          "name": "",
          "type": "uint256"
        }
      ],
      "stateMutability": "view",
      "type": "function"
    },
    {
      "inputs": [],
      "name": "erc20Token",
      "outputs": [
        {
          "internalType": "contract IERC20",
          "name": "",
          "type": "address"
        }
      ],
      "stateMutability": "view",
      "type": "function"
    },
    {
      "inputs": [],
      "name": "erc721Token",
      "outputs": [
        {
          "internalType": "contract IMyERC721",
          "name": "",
          "type": "address"
        }
      ],
      "stateMutability": "view",
      "type": "function"
    }
  ],
  "bytecode": "0x608060405234801561001057600080fd5b5060405162000b0738038062000b078339818101604052810190610034919061016f565b816000806101000a81548173ffffffffffffffffffffffffffffffffffffffff021916908373ffffffffffffffffffffffffffffffffffffffff16021790555080600160006101000a81548173ffffffffffffffffffffffffffffffffffffffff021916908373ffffffffffffffffffffffffffffffffffffffff16021790555050506101af565b600080fd5b600073ffffffffffffffffffffffffffffffffffffffff82169050919050565b60006100ec826100c1565b9050919050565b60006100fe826100e1565b9050919050565b61010e816100f3565b811461011957600080fd5b50565b60008151905061012b81610105565b92915050565b600061013c826100e1565b9050919050565b61014c81610131565b811461015757600080fd5b50565b60008151905061016981610143565b92915050565b60008060408385031215610186576101856100bc565b5b60006101948582860161011c565b92505060206101a58582860161015a565b9150509250929050565b61094880620001bf6000396000f3fe608060405234801561001057600080fd5b506004361061004c5760003560e01c80635f2d6bcd146100515780638a13eea71461006f578063b6b55f251461008d578063fc7e286d146100a9575b600080fd5b6100596100d9565b604051610066919061053a565b60405180910390f35b6100776100ff565b6040516100849190610576565b60405180910390f35b6100a760048036038101906100a291906105cc565b610123565b005b6100c360048036038101906100be9190610637565b6103b7565b6040516100d09190610673565b60405180910390f35b600160009054906101000a900473ffffffffffffffffffffffffffffffffffffffff1681565b60008054906101000a900473ffffffffffffffffffffffffffffffffffffffff1681565b60008054906101000a900473ffffffffffffffffffffffffffffffffffffffff1673ffffffffffffffffffffffffffffffffffffffff166323b872dd3330846040518463ffffffff1660e01b81526004016101809392919061069d565b6020604051808303816000875af115801561019f573d6000803e3d6000fd5b505050506040513d601f19601f820116820180604052508101906101c3919061070c565b610202576040517f08c379a00000000000000000000000000000000000000000000000000000000081526004016101f990610796565b60405180910390fd5b80600260003373ffffffffffffffffffffffffffffffffffffffff1673ffffffffffffffffffffffffffffffffffffffff168152602001908152602001600020600082825461025191906107e5565b925050819055506102d66040518060400160405280600981526020017f4465706f73697465640000000000000000000000000000000000000000000000815250600260003373ffffffffffffffffffffffffffffffffffffffff1673ffffffffffffffffffffffffffffffffffffffff168152602001908152602001600020546103cf565b69021e19e0c9bab2400000600260003373ffffffffffffffffffffffffffffffffffffffff1673ffffffffffffffffffffffffffffffffffffffff16815260200190815260200160002054106103b457600160009054906101000a900473ffffffffffffffffffffffffffffffffffffffff1673ffffffffffffffffffffffffffffffffffffffff16636a627842336040518263ffffffff1660e01b81526004016103819190610819565b600060405180830381600087803b15801561039b57600080fd5b505af11580156103af573d6000803e3d6000fd5b505050505b50565b60026020528060005260406000206000915090505481565b61046782826040516024016103e59291906108b3565b6040516020818303038152906040527fb60e72cc000000000000000000000000000000000000000000000000000000007bffffffffffffffffffffffffffffffffffffffffffffffffffffffff19166020820180517bffffffffffffffffffffffffffffffffffffffffffffffffffffffff838183161783525050505061046b565b5050565b6104828161047a6104856104a6565b63ffffffff16565b50565b60006a636f6e736f6c652e6c6f679050600080835160208501845afa505050565b6104b1819050919050565b6104b96108e3565b565b600073ffffffffffffffffffffffffffffffffffffffff82169050919050565b6000819050919050565b60006105006104fb6104f6846104bb565b6104db565b6104bb565b9050919050565b6000610512826104e5565b9050919050565b600061052482610507565b9050919050565b61053481610519565b82525050565b600060208201905061054f600083018461052b565b92915050565b600061056082610507565b9050919050565b61057081610555565b82525050565b600060208201905061058b6000830184610567565b92915050565b600080fd5b6000819050919050565b6105a981610596565b81146105b457600080fd5b50565b6000813590506105c6816105a0565b92915050565b6000602082840312156105e2576105e1610591565b5b60006105f0848285016105b7565b91505092915050565b6000610604826104bb565b9050919050565b610614816105f9565b811461061f57600080fd5b50565b6000813590506106318161060b565b92915050565b60006020828403121561064d5761064c610591565b5b600061065b84828501610622565b91505092915050565b61066d81610596565b82525050565b60006020820190506106886000830184610664565b92915050565b610697816105f9565b82525050565b60006060820190506106b2600083018661068e565b6106bf602083018561068e565b6106cc6040830184610664565b949350505050565b60008115159050919050565b6106e9816106d4565b81146106f457600080fd5b50565b600081519050610706816106e0565b92915050565b60006020828403121561072257610721610591565b5b6000610730848285016106f7565b91505092915050565b600082825260208201905092915050565b7f5472616e73666572206661696c65640000000000000000000000000000000000600082015250565b6000610780600f83610739565b915061078b8261074a565b602082019050919050565b600060208201905081810360008301526107af81610773565b9050919050565b7f4e487b7100000000000000000000000000000000000000000000000000000000600052601160045260246000fd5b60006107f082610596565b91506107fb83610596565b9250828201905080821115610813576108126107b6565b5b92915050565b600060208201905061082e600083018461068e565b92915050565b600081519050919050565b60005b8381101561085d578082015181840152602081019050610842565b60008484015250505050565b6000601f19601f8301169050919050565b600061088582610834565b61088f8185610739565b935061089f81856020860161083f565b6108a881610869565b840191505092915050565b600060408201905081810360008301526108cd818561087a565b90506108dc6020830184610664565b9392505050565b7f4e487b7100000000000000000000000000000000000000000000000000000000600052605160045260246000fdfea26469706673582212206a2b98652f2efd278d80baa7516a94eceeecaed10c56e46e279944fff64ed97964736f6c63430008140033",
  "linkReferences": {},
  "deployedLinkReferences": {}
}