{
  "_format": "hh-sol-artifact-1",
  "contractName": "DepositContract",
  "sourceName": "contracts/ERC721Token.sol",
  "abi": [
    {
      "inputs": [
        {
          "internalType": "contract IERC20",
          "name": "_erc20Token",
          "type": "address"
        },
        {
          "internalType": "contract IMyERC721",
          "name": "_erc721Token",
          "type": "address"
        }
      ],
      "stateMutability": "nonpayable",
      "type": "constructor"
    },
    {
      "inputs": [
        {
          "internalType": "address",
          "name": "owner",
          "type": "address"
        }
      ],
      "name": "OwnableInvalidOwner",
      "type": "error"
    },
    {
      "inputs": [
        {
          "internalType": "address",
          "name": "account",
          "type": "address"
        }
      ],
      "name": "OwnableUnauthorizedAccount",
      "type": "error"
    },
    {
      "anonymous": false,
      "inputs": [
        {
          "indexed": true,
          "internalType": "address",
          "name": "previousOwner",
          "type": "address"
        },
        {
          "indexed": true,
          "internalType": "address",
          "name": "newOwner",
          "type": "address"
        }
      ],
      "name": "OwnershipTransferred",
      "type": "event"
    },
    {
      "inputs": [
        {
          "internalType": "uint256",
          "name": "amount",
          "type": "uint256"
        }
      ],
      "name": "deposit",
      "outputs": [],
      "stateMutability": "nonpayable",
      "type": "function"
    },
    {
      "inputs": [
        {
          "internalType": "address",
          "name": "",
          "type": "address"
        }
      ],
      "name": "deposits",
      "outputs": [
        {
          "internalType": "uint256",
          "name": "",
          "type": "uint256"
        }
      ],
      "stateMutability": "view",
      "type": "function"
    },
    {
      "inputs": [],
      "name": "erc20Token",
      "outputs": [
        {
          "internalType": "contract IERC20",
          "name": "",
          "type": "address"
        }
      ],
      "stateMutability": "view",
      "type": "function"
    },
    {
      "inputs": [],
      "name": "erc721Token",
      "outputs": [
        {
          "internalType": "contract IMyERC721",
          "name": "",
          "type": "address"
        }
      ],
      "stateMutability": "view",
      "type": "function"
    },
    {
      "inputs": [],
      "name": "owner",
      "outputs": [
        {
          "internalType": "address",
          "name": "",
          "type": "address"
        }
      ],
      "stateMutability": "view",
      "type": "function"
    },
    {
      "inputs": [],
      "name": "renounceOwnership",
      "outputs": [],
      "stateMutability": "nonpayable",
      "type": "function"
    },
    {
      "inputs": [
        {
          "internalType": "address",
          "name": "newOwner",
          "type": "address"
        }
      ],
      "name": "transferOwnership",
      "outputs": [],
      "stateMutability": "nonpayable",
      "type": "function"
    }
  ],
  "bytecode": "0x60806040523480156200001157600080fd5b5060405162000f2c38038062000f2c8339818101604052810190620000379190620002d0565b33600073ffffffffffffffffffffffffffffffffffffffff168173ffffffffffffffffffffffffffffffffffffffff1603620000ad5760006040517f1e4fbdf7000000000000000000000000000000000000000000000000000000008152600401620000a4919062000328565b60405180910390fd5b620000be816200014960201b60201c565b5081600160006101000a81548173ffffffffffffffffffffffffffffffffffffffff021916908373ffffffffffffffffffffffffffffffffffffffff16021790555080600260006101000a81548173ffffffffffffffffffffffffffffffffffffffff021916908373ffffffffffffffffffffffffffffffffffffffff160217905550505062000345565b60008060009054906101000a900473ffffffffffffffffffffffffffffffffffffffff169050816000806101000a81548173ffffffffffffffffffffffffffffffffffffffff021916908373ffffffffffffffffffffffffffffffffffffffff1602179055508173ffffffffffffffffffffffffffffffffffffffff168173ffffffffffffffffffffffffffffffffffffffff167f8be0079c531659141344cd1fd0a4f28419497f9722a3daafe3b4186f6b6457e060405160405180910390a35050565b600080fd5b600073ffffffffffffffffffffffffffffffffffffffff82169050919050565b60006200023f8262000212565b9050919050565b6000620002538262000232565b9050919050565b620002658162000246565b81146200027157600080fd5b50565b60008151905062000285816200025a565b92915050565b6000620002988262000232565b9050919050565b620002aa816200028b565b8114620002b657600080fd5b50565b600081519050620002ca816200029f565b92915050565b60008060408385031215620002ea57620002e96200020d565b5b6000620002fa8582860162000274565b92505060206200030d85828601620002b9565b9150509250929050565b620003228162000232565b82525050565b60006020820190506200033f600083018462000317565b92915050565b610bd780620003556000396000f3fe608060405234801561001057600080fd5b506004361061007d5760003560e01c80638da5cb5b1161005b5780638da5cb5b146100c8578063b6b55f25146100e6578063f2fde38b14610102578063fc7e286d1461011e5761007d565b80635f2d6bcd14610082578063715018a6146100a05780638a13eea7146100aa575b600080fd5b61008a61014e565b60405161009791906107c9565b60405180910390f35b6100a8610174565b005b6100b2610188565b6040516100bf9190610805565b60405180910390f35b6100d06101ae565b6040516100dd9190610841565b60405180910390f35b61010060048036038101906100fb9190610897565b6101d7565b005b61011c600480360381019061011791906108f0565b61046d565b005b610138600480360381019061013391906108f0565b6104f3565b604051610145919061092c565b60405180910390f35b600260009054906101000a900473ffffffffffffffffffffffffffffffffffffffff1681565b61017c61050b565b6101866000610592565b565b600160009054906101000a900473ffffffffffffffffffffffffffffffffffffffff1681565b60008060009054906101000a900473ffffffffffffffffffffffffffffffffffffffff16905090565b600160009054906101000a900473ffffffffffffffffffffffffffffffffffffffff1673ffffffffffffffffffffffffffffffffffffffff166323b872dd3330846040518463ffffffff1660e01b815260040161023693929190610947565b6020604051808303816000875af1158015610255573d6000803e3d6000fd5b505050506040513d601f19601f8201168201806040525081019061027991906109b6565b6102b8576040517f08c379a00000000000000000000000000000000000000000000000000000000081526004016102af90610a40565b60405180910390fd5b80600360003373ffffffffffffffffffffffffffffffffffffffff1673ffffffffffffffffffffffffffffffffffffffff16815260200190815260200160002060008282546103079190610a8f565b9250508190555061038c6040518060400160405280600981526020017f4465706f73697465640000000000000000000000000000000000000000000000815250600360003373ffffffffffffffffffffffffffffffffffffffff1673ffffffffffffffffffffffffffffffffffffffff16815260200190815260200160002054610656565b69021e19e0c9bab2400000600360003373ffffffffffffffffffffffffffffffffffffffff1673ffffffffffffffffffffffffffffffffffffffff168152602001908152602001600020541061046a57600260009054906101000a900473ffffffffffffffffffffffffffffffffffffffff1673ffffffffffffffffffffffffffffffffffffffff16636a627842336040518263ffffffff1660e01b81526004016104379190610841565b600060405180830381600087803b15801561045157600080fd5b505af1158015610465573d6000803e3d6000fd5b505050505b50565b61047561050b565b600073ffffffffffffffffffffffffffffffffffffffff168173ffffffffffffffffffffffffffffffffffffffff16036104e75760006040517f1e4fbdf70000000000000000000000000000000000000000000000000000000081526004016104de9190610841565b60405180910390fd5b6104f081610592565b50565b60036020528060005260406000206000915090505481565b6105136106f2565b73ffffffffffffffffffffffffffffffffffffffff166105316101ae565b73ffffffffffffffffffffffffffffffffffffffff1614610590576105546106f2565b6040517f118cdaa70000000000000000000000000000000000000000000000000000000081526004016105879190610841565b60405180910390fd5b565b60008060009054906101000a900473ffffffffffffffffffffffffffffffffffffffff169050816000806101000a81548173ffffffffffffffffffffffffffffffffffffffff021916908373ffffffffffffffffffffffffffffffffffffffff1602179055508173ffffffffffffffffffffffffffffffffffffffff168173ffffffffffffffffffffffffffffffffffffffff167f8be0079c531659141344cd1fd0a4f28419497f9722a3daafe3b4186f6b6457e060405160405180910390a35050565b6106ee828260405160240161066c929190610b42565b6040516020818303038152906040527fb60e72cc000000000000000000000000000000000000000000000000000000007bffffffffffffffffffffffffffffffffffffffffffffffffffffffff19166020820180517bffffffffffffffffffffffffffffffffffffffffffffffffffffffff83818316178352505050506106fa565b5050565b600033905090565b61071181610709610714610735565b63ffffffff16565b50565b60006a636f6e736f6c652e6c6f679050600080835160208501845afa505050565b610740819050919050565b610748610b72565b565b600073ffffffffffffffffffffffffffffffffffffffff82169050919050565b6000819050919050565b600061078f61078a6107858461074a565b61076a565b61074a565b9050919050565b60006107a182610774565b9050919050565b60006107b382610796565b9050919050565b6107c3816107a8565b82525050565b60006020820190506107de60008301846107ba565b92915050565b60006107ef82610796565b9050919050565b6107ff816107e4565b82525050565b600060208201905061081a60008301846107f6565b92915050565b600061082b8261074a565b9050919050565b61083b81610820565b82525050565b60006020820190506108566000830184610832565b92915050565b600080fd5b6000819050919050565b61087481610861565b811461087f57600080fd5b50565b6000813590506108918161086b565b92915050565b6000602082840312156108ad576108ac61085c565b5b60006108bb84828501610882565b91505092915050565b6108cd81610820565b81146108d857600080fd5b50565b6000813590506108ea816108c4565b92915050565b6000602082840312156109065761090561085c565b5b6000610914848285016108db565b91505092915050565b61092681610861565b82525050565b6000602082019050610941600083018461091d565b92915050565b600060608201905061095c6000830186610832565b6109696020830185610832565b610976604083018461091d565b949350505050565b60008115159050919050565b6109938161097e565b811461099e57600080fd5b50565b6000815190506109b08161098a565b92915050565b6000602082840312156109cc576109cb61085c565b5b60006109da848285016109a1565b91505092915050565b600082825260208201905092915050565b7f5472616e73666572206661696c65640000000000000000000000000000000000600082015250565b6000610a2a600f836109e3565b9150610a35826109f4565b602082019050919050565b60006020820190508181036000830152610a5981610a1d565b9050919050565b7f4e487b7100000000000000000000000000000000000000000000000000000000600052601160045260246000fd5b6000610a9a82610861565b9150610aa583610861565b9250828201905080821115610abd57610abc610a60565b5b92915050565b600081519050919050565b60005b83811015610aec578082015181840152602081019050610ad1565b60008484015250505050565b6000601f19601f8301169050919050565b6000610b1482610ac3565b610b1e81856109e3565b9350610b2e818560208601610ace565b610b3781610af8565b840191505092915050565b60006040820190508181036000830152610b5c8185610b09565b9050610b6b602083018461091d565b9392505050565b7f4e487b7100000000000000000000000000000000000000000000000000000000600052605160045260246000fdfea264697066735822122045e5c6627a6b8c694f773146c3425a9240c244cb2e73aa41a423d7ee572eca6f64736f6c63430008140033",
  "linkReferences": {},
  "deployedLinkReferences": {}
}