{
  "_format": "hh-sol-artifact-1",
  "contractName": "MyERC721",
  "sourceName": "contracts/ERC721Token.sol",
  "abi": [
    {
      "inputs": [],
      "stateMutability": "nonpayable",
      "type": "constructor"
    },
    {
      "inputs": [
        {
          "internalType": "address",
          "name": "sender",
          "type": "address"
        },
        {
          "internalType": "uint256",
          "name": "tokenId",
          "type": "uint256"
        },
        {
          "internalType": "address",
          "name": "owner",
          "type": "address"
        }
      ],
      "name": "ERC721IncorrectOwner",
      "type": "error"
    },
    {
      "inputs": [
        {
          "internalType": "address",
          "name": "operator",
          "type": "address"
        },
        {
          "internalType": "uint256",
          "name": "tokenId",
          "type": "uint256"
        }
      ],
      "name": "ERC721InsufficientApproval",
      "type": "error"
    },
    {
      "inputs": [
        {
          "internalType": "address",
          "name": "approver",
          "type": "address"
        }
      ],
      "name": "ERC721InvalidApprover",
      "type": "error"
    },
    {
      "inputs": [
        {
          "internalType": "address",
          "name": "operator",
          "type": "address"
        }
      ],
      "name": "ERC721InvalidOperator",
      "type": "error"
    },
    {
      "inputs": [
        {
          "internalType": "address",
          "name": "owner",
          "type": "address"
        }
      ],
      "name": "ERC721InvalidOwner",
      "type": "error"
    },
    {
      "inputs": [
        {
          "internalType": "address",
          "name": "receiver",
          "type": "address"
        }
      ],
      "name": "ERC721InvalidReceiver",
      "type": "error"
    },
    {
      "inputs": [
        {
          "internalType": "address",
          "name": "sender",
          "type": "address"
        }
      ],
      "name": "ERC721InvalidSender",
      "type": "error"
    },
    {
      "inputs": [
        {
          "internalType": "uint256",
          "name": "tokenId",
          "type": "uint256"
        }
      ],
      "name": "ERC721NonexistentToken",
      "type": "error"
    },
    {
      "inputs": [
        {
          "internalType": "address",
          "name": "owner",
          "type": "address"
        }
      ],
      "name": "OwnableInvalidOwner",
      "type": "error"
    },
    {
      "inputs": [
        {
          "internalType": "address",
          "name": "account",
          "type": "address"
        }
      ],
      "name": "OwnableUnauthorizedAccount",
      "type": "error"
    },
    {
      "anonymous": false,
      "inputs": [
        {
          "indexed": true,
          "internalType": "address",
          "name": "owner",
          "type": "address"
        },
        {
          "indexed": true,
          "internalType": "address",
          "name": "approved",
          "type": "address"
        },
        {
          "indexed": true,
          "internalType": "uint256",
          "name": "tokenId",
          "type": "uint256"
        }
      ],
      "name": "Approval",
      "type": "event"
    },
    {
      "anonymous": false,
      "inputs": [
        {
          "indexed": true,
          "internalType": "address",
          "name": "owner",
          "type": "address"
        },
        {
          "indexed": true,
          "internalType": "address",
          "name": "operator",
          "type": "address"
        },
        {
          "indexed": false,
          "internalType": "bool",
          "name": "approved",
          "type": "bool"
        }
      ],
      "name": "ApprovalForAll",
      "type": "event"
    },
    {
      "anonymous": false,
      "inputs": [
        {
          "indexed": true,
          "internalType": "address",
          "name": "previousOwner",
          "type": "address"
        },
        {
          "indexed": true,
          "internalType": "address",
          "name": "newOwner",
          "type": "address"
        }
      ],
      "name": "OwnershipTransferred",
      "type": "event"
    },
    {
      "anonymous": false,
      "inputs": [
        {
          "indexed": true,
          "internalType": "address",
          "name": "from",
          "type": "address"
        },
        {
          "indexed": true,
          "internalType": "address",
          "name": "to",
          "type": "address"
        },
        {
          "indexed": true,
          "internalType": "uint256",
          "name": "tokenId",
          "type": "uint256"
        }
      ],
      "name": "Transfer",
      "type": "event"
    },
    {
      "inputs": [],
      "name": "DepositContract",
      "outputs": [
        {
          "internalType": "address",
          "name": "",
          "type": "address"
        }
      ],
      "stateMutability": "view",
      "type": "function"
    },
    {
      "inputs": [
        {
          "internalType": "address",
          "name": "to",
          "type": "address"
        },
        {
          "internalType": "uint256",
          "name": "tokenId",
          "type": "uint256"
        }
      ],
      "name": "approve",
      "outputs": [],
      "stateMutability": "nonpayable",
      "type": "function"
    },
    {
      "inputs": [
        {
          "internalType": "address",
          "name": "owner",
          "type": "address"
        }
      ],
      "name": "balanceOf",
      "outputs": [
        {
          "internalType": "uint256",
          "name": "",
          "type": "uint256"
        }
      ],
      "stateMutability": "view",
      "type": "function"
    },
    {
      "inputs": [
        {
          "internalType": "uint256",
          "name": "tokenId",
          "type": "uint256"
        }
      ],
      "name": "getApproved",
      "outputs": [
        {
          "internalType": "address",
          "name": "",
          "type": "address"
        }
      ],
      "stateMutability": "view",
      "type": "function"
    },
    {
      "inputs": [
        {
          "internalType": "address",
          "name": "owner",
          "type": "address"
        },
        {
          "internalType": "address",
          "name": "operator",
          "type": "address"
        }
      ],
      "name": "isApprovedForAll",
      "outputs": [
        {
          "internalType": "bool",
          "name": "",
          "type": "bool"
        }
      ],
      "stateMutability": "view",
      "type": "function"
    },
    {
      "inputs": [
        {
          "internalType": "address",
          "name": "to",
          "type": "address"
        }
      ],
      "name": "mint",
      "outputs": [],
      "stateMutability": "nonpayable",
      "type": "function"
    },
    {
      "inputs": [],
      "name": "name",
      "outputs": [
        {
          "internalType": "string",
          "name": "",
          "type": "string"
        }
      ],
      "stateMutability": "view",
      "type": "function"
    },
    {
      "inputs": [],
      "name": "owner",
      "outputs": [
        {
          "internalType": "address",
          "name": "",
          "type": "address"
        }
      ],
      "stateMutability": "view",
      "type": "function"
    },
    {
      "inputs": [
        {
          "internalType": "uint256",
          "name": "tokenId",
          "type": "uint256"
        }
      ],
      "name": "ownerOf",
      "outputs": [
        {
          "internalType": "address",
          "name": "",
          "type": "address"
        }
      ],
      "stateMutability": "view",
      "type": "function"
    },
    {
      "inputs": [],
      "name": "renounceOwnership",
      "outputs": [],
      "stateMutability": "nonpayable",
      "type": "function"
    },
    {
      "inputs": [
        {
          "internalType": "address",
          "name": "from",
          "type": "address"
        },
        {
          "internalType": "address",
          "name": "to",
          "type": "address"
        },
        {
          "internalType": "uint256",
          "name": "tokenId",
          "type": "uint256"
        }
      ],
      "name": "safeTransferFrom",
      "outputs": [],
      "stateMutability": "nonpayable",
      "type": "function"
    },
    {
      "inputs": [
        {
          "internalType": "address",
          "name": "from",
          "type": "address"
        },
        {
          "internalType": "address",
          "name": "to",
          "type": "address"
        },
        {
          "internalType": "uint256",
          "name": "tokenId",
          "type": "uint256"
        },
        {
          "internalType": "bytes",
          "name": "data",
          "type": "bytes"
        }
      ],
      "name": "safeTransferFrom",
      "outputs": [],
      "stateMutability": "nonpayable",
      "type": "function"
    },
    {
      "inputs": [
        {
          "internalType": "address",
          "name": "operator",
          "type": "address"
        },
        {
          "internalType": "bool",
          "name": "approved",
          "type": "bool"
        }
      ],
      "name": "setApprovalForAll",
      "outputs": [],
      "stateMutability": "nonpayable",
      "type": "function"
    },
    {
      "inputs": [
        {
          "internalType": "address",
          "name": "_depositContract",
          "type": "address"
        }
      ],
      "name": "setDepositContract",
      "outputs": [],
      "stateMutability": "nonpayable",
      "type": "function"
    },
    {
      "inputs": [
        {
          "internalType": "bytes4",
          "name": "interfaceId",
          "type": "bytes4"
        }
      ],
      "name": "supportsInterface",
      "outputs": [
        {
          "internalType": "bool",
          "name": "",
          "type": "bool"
        }
      ],
      "stateMutability": "view",
      "type": "function"
    },
    {
      "inputs": [],
      "name": "symbol",
      "outputs": [
        {
          "internalType": "string",
          "name": "",
          "type": "string"
        }
      ],
      "stateMutability": "view",
      "type": "function"
    },
    {
      "inputs": [
        {
          "internalType": "uint256",
          "name": "tokenId",
          "type": "uint256"
        }
      ],
      "name": "tokenURI",
      "outputs": [
        {
          "internalType": "string",
          "name": "",
          "type": "string"
        }
      ],
      "stateMutability": "view",
      "type": "function"
    },
    {
      "inputs": [
        {
          "internalType": "address",
          "name": "from",
          "type": "address"
        },
        {
          "internalType": "address",
          "name": "to",
          "type": "address"
        },
        {
          "internalType": "uint256",
          "name": "tokenId",
          "type": "uint256"
        }
      ],
      "name": "transferFrom",
      "outputs": [],
      "stateMutability": "nonpayable",
      "type": "function"
    },
    {
      "inputs": [
        {
          "internalType": "address",
          "name": "newOwner",
          "type": "address"
        }
      ],
      "name": "transferOwnership",
      "outputs": [],
      "stateMutability": "nonpayable",
      "type": "function"
    }
  ],
  "bytecode": "0x60806040523480156200001157600080fd5b50336040518060400160405280600581526020017f4d794e46540000000000000000000000000000000000000000000000000000008152506040518060400160405280600381526020017f4e46540000000000000000000000000000000000000000000000000000000000815250816000908162000090919062000472565b508060019081620000a2919062000472565b505050600073ffffffffffffffffffffffffffffffffffffffff168173ffffffffffffffffffffffffffffffffffffffff16036200011a5760006040517f1e4fbdf70000000000000000000000000000000000000000000000000000000081526004016200011191906200059e565b60405180910390fd5b6200012b816200013260201b60201c565b50620005bb565b6000600660009054906101000a900473ffffffffffffffffffffffffffffffffffffffff16905081600660006101000a81548173ffffffffffffffffffffffffffffffffffffffff021916908373ffffffffffffffffffffffffffffffffffffffff1602179055508173ffffffffffffffffffffffffffffffffffffffff168173ffffffffffffffffffffffffffffffffffffffff167f8be0079c531659141344cd1fd0a4f28419497f9722a3daafe3b4186f6b6457e060405160405180910390a35050565b600081519050919050565b7f4e487b7100000000000000000000000000000000000000000000000000000000600052604160045260246000fd5b7f4e487b7100000000000000000000000000000000000000000000000000000000600052602260045260246000fd5b600060028204905060018216806200027a57607f821691505b60208210810362000290576200028f62000232565b5b50919050565b60008190508160005260206000209050919050565b60006020601f8301049050919050565b600082821b905092915050565b600060088302620002fa7fffffffffffffffffffffffffffffffffffffffffffffffffffffffffffffffff82620002bb565b620003068683620002bb565b95508019841693508086168417925050509392505050565b6000819050919050565b6000819050919050565b6000620003536200034d62000347846200031e565b62000328565b6200031e565b9050919050565b6000819050919050565b6200036f8362000332565b620003876200037e826200035a565b848454620002c8565b825550505050565b600090565b6200039e6200038f565b620003ab81848462000364565b505050565b5b81811015620003d357620003c760008262000394565b600181019050620003b1565b5050565b601f8211156200042257620003ec8162000296565b620003f784620002ab565b8101602085101562000407578190505b6200041f6200041685620002ab565b830182620003b0565b50505b505050565b600082821c905092915050565b6000620004476000198460080262000427565b1980831691505092915050565b600062000462838362000434565b9150826002028217905092915050565b6200047d82620001f8565b67ffffffffffffffff81111562000499576200049862000203565b5b620004a5825462000261565b620004b2828285620003d7565b600060209050601f831160018114620004ea5760008415620004d5578287015190505b620004e1858262000454565b86555062000551565b601f198416620004fa8662000296565b60005b828110156200052457848901518255600182019150602085019450602081019050620004fd565b8683101562000544578489015162000540601f89168262000434565b8355505b6001600288020188555050505b505050505050565b600073ffffffffffffffffffffffffffffffffffffffff82169050919050565b6000620005868262000559565b9050919050565b620005988162000579565b82525050565b6000602082019050620005b560008301846200058d565b92915050565b6122f180620005cb6000396000f3fe608060405234801561001057600080fd5b50600436106101215760003560e01c80636a627842116100ad578063a22cb46511610071578063a22cb465146102f4578063b88d4fde14610310578063c87b56dd1461032c578063e985e9c51461035c578063f2fde38b1461038c57610121565b80636a6278421461026257806370a082311461027e578063715018a6146102ae5780638da5cb5b146102b857806395d89b41146102d657610121565b80630ec2e821116100f45780630ec2e821146101c05780631558687a146101dc57806323b872dd146101fa57806342842e0e146102165780636352211e1461023257610121565b806301ffc9a71461012657806306fdde0314610156578063081812fc14610174578063095ea7b3146101a4575b600080fd5b610140600480360381019061013b9190611a58565b6103a8565b60405161014d9190611aa0565b60405180910390f35b61015e61048a565b60405161016b9190611b4b565b60405180910390f35b61018e60048036038101906101899190611ba3565b61051c565b60405161019b9190611c11565b60405180910390f35b6101be60048036038101906101b99190611c58565b610538565b005b6101da60048036038101906101d59190611c98565b61054e565b005b6101e461059a565b6040516101f19190611c11565b60405180910390f35b610214600480360381019061020f9190611cc5565b6105c0565b005b610230600480360381019061022b9190611cc5565b6106c2565b005b61024c60048036038101906102479190611ba3565b6106e2565b6040516102599190611c11565b60405180910390f35b61027c60048036038101906102779190611c98565b6106f4565b005b61029860048036038101906102939190611c98565b6107e4565b6040516102a59190611d27565b60405180910390f35b6102b661089e565b005b6102c06108b2565b6040516102cd9190611c11565b60405180910390f35b6102de6108dc565b6040516102eb9190611b4b565b60405180910390f35b61030e60048036038101906103099190611d6e565b61096e565b005b61032a60048036038101906103259190611ee3565b610984565b005b61034660048036038101906103419190611ba3565b6109a1565b6040516103539190611b4b565b60405180910390f35b61037660048036038101906103719190611f66565b610a0a565b6040516103839190611aa0565b60405180910390f35b6103a660048036038101906103a19190611c98565b610a9e565b005b60007f80ac58cd000000000000000000000000000000000000000000000000000000007bffffffffffffffffffffffffffffffffffffffffffffffffffffffff1916827bffffffffffffffffffffffffffffffffffffffffffffffffffffffff1916148061047357507f5b5e139f000000000000000000000000000000000000000000000000000000007bffffffffffffffffffffffffffffffffffffffffffffffffffffffff1916827bffffffffffffffffffffffffffffffffffffffffffffffffffffffff1916145b80610483575061048282610b24565b5b9050919050565b60606000805461049990611fd5565b80601f01602080910402602001604051908101604052809291908181526020018280546104c590611fd5565b80156105125780601f106104e757610100808354040283529160200191610512565b820191906000526020600020905b8154815290600101906020018083116104f557829003601f168201915b5050505050905090565b600061052782610b8e565b5061053182610c16565b9050919050565b61054a8282610545610c53565b610c5b565b5050565b610556610c6d565b80600860006101000a81548173ffffffffffffffffffffffffffffffffffffffff021916908373ffffffffffffffffffffffffffffffffffffffff16021790555050565b600860009054906101000a900473ffffffffffffffffffffffffffffffffffffffff1681565b600073ffffffffffffffffffffffffffffffffffffffff168273ffffffffffffffffffffffffffffffffffffffff16036106325760006040517f64a0ae920000000000000000000000000000000000000000000000000000000081526004016106299190611c11565b60405180910390fd5b60006106468383610641610c53565b610cf4565b90508373ffffffffffffffffffffffffffffffffffffffff168173ffffffffffffffffffffffffffffffffffffffff16146106bc578382826040517f64283d7b0000000000000000000000000000000000000000000000000000000081526004016106b393929190612006565b60405180910390fd5b50505050565b6106dd83838360405180602001604052806000815250610984565b505050565b60006106ed82610b8e565b9050919050565b6106fc6108b2565b73ffffffffffffffffffffffffffffffffffffffff163373ffffffffffffffffffffffffffffffffffffffff1614806107825750600860009054906101000a900473ffffffffffffffffffffffffffffffffffffffff1673ffffffffffffffffffffffffffffffffffffffff163373ffffffffffffffffffffffffffffffffffffffff16145b6107c1576040517f08c379a00000000000000000000000000000000000000000000000000000000081526004016107b890612089565b60405180910390fd5b6107e181600760008154809291906107d8906120d8565b91905055610f0e565b50565b60008073ffffffffffffffffffffffffffffffffffffffff168273ffffffffffffffffffffffffffffffffffffffff16036108575760006040517f89c62b6400000000000000000000000000000000000000000000000000000000815260040161084e9190611c11565b60405180910390fd5b600360008373ffffffffffffffffffffffffffffffffffffffff1673ffffffffffffffffffffffffffffffffffffffff168152602001908152602001600020549050919050565b6108a6610c6d565b6108b06000610f2c565b565b6000600660009054906101000a900473ffffffffffffffffffffffffffffffffffffffff16905090565b6060600180546108eb90611fd5565b80601f016020809104026020016040519081016040528092919081815260200182805461091790611fd5565b80156109645780601f1061093957610100808354040283529160200191610964565b820191906000526020600020905b81548152906001019060200180831161094757829003601f168201915b5050505050905090565b610980610979610c53565b8383610ff2565b5050565b61098f8484846105c0565b61099b84848484611161565b50505050565b60606109ac82610b8e565b5060006109b7611318565b905060008151116109d75760405180602001604052806000815250610a02565b806109e18461132f565b6040516020016109f292919061215c565b6040516020818303038152906040525b915050919050565b6000600560008473ffffffffffffffffffffffffffffffffffffffff1673ffffffffffffffffffffffffffffffffffffffff16815260200190815260200160002060008373ffffffffffffffffffffffffffffffffffffffff1673ffffffffffffffffffffffffffffffffffffffff16815260200190815260200160002060009054906101000a900460ff16905092915050565b610aa6610c6d565b600073ffffffffffffffffffffffffffffffffffffffff168173ffffffffffffffffffffffffffffffffffffffff1603610b185760006040517f1e4fbdf7000000000000000000000000000000000000000000000000000000008152600401610b0f9190611c11565b60405180910390fd5b610b2181610f2c565b50565b60007f01ffc9a7000000000000000000000000000000000000000000000000000000007bffffffffffffffffffffffffffffffffffffffffffffffffffffffff1916827bffffffffffffffffffffffffffffffffffffffffffffffffffffffff1916149050919050565b600080610b9a836113fd565b9050600073ffffffffffffffffffffffffffffffffffffffff168173ffffffffffffffffffffffffffffffffffffffff1603610c0d57826040517f7e273289000000000000000000000000000000000000000000000000000000008152600401610c049190611d27565b60405180910390fd5b80915050919050565b60006004600083815260200190815260200160002060009054906101000a900473ffffffffffffffffffffffffffffffffffffffff169050919050565b600033905090565b610c68838383600161143a565b505050565b610c75610c53565b73ffffffffffffffffffffffffffffffffffffffff16610c936108b2565b73ffffffffffffffffffffffffffffffffffffffff1614610cf257610cb6610c53565b6040517f118cdaa7000000000000000000000000000000000000000000000000000000008152600401610ce99190611c11565b60405180910390fd5b565b600080610d00846113fd565b9050600073ffffffffffffffffffffffffffffffffffffffff168373ffffffffffffffffffffffffffffffffffffffff1614610d4257610d418184866115ff565b5b600073ffffffffffffffffffffffffffffffffffffffff168173ffffffffffffffffffffffffffffffffffffffff1614610dd357610d8460008560008061143a565b6001600360008373ffffffffffffffffffffffffffffffffffffffff1673ffffffffffffffffffffffffffffffffffffffff168152602001908152602001600020600082825403925050819055505b600073ffffffffffffffffffffffffffffffffffffffff168573ffffffffffffffffffffffffffffffffffffffff1614610e56576001600360008773ffffffffffffffffffffffffffffffffffffffff1673ffffffffffffffffffffffffffffffffffffffff168152602001908152602001600020600082825401925050819055505b846002600086815260200190815260200160002060006101000a81548173ffffffffffffffffffffffffffffffffffffffff021916908373ffffffffffffffffffffffffffffffffffffffff160217905550838573ffffffffffffffffffffffffffffffffffffffff168273ffffffffffffffffffffffffffffffffffffffff167fddf252ad1be2c89b69c2b068fc378daa952ba7f163c4a11628f55a4df523b3ef60405160405180910390a4809150509392505050565b610f288282604051806020016040528060008152506116c3565b5050565b6000600660009054906101000a900473ffffffffffffffffffffffffffffffffffffffff16905081600660006101000a81548173ffffffffffffffffffffffffffffffffffffffff021916908373ffffffffffffffffffffffffffffffffffffffff1602179055508173ffffffffffffffffffffffffffffffffffffffff168173ffffffffffffffffffffffffffffffffffffffff167f8be0079c531659141344cd1fd0a4f28419497f9722a3daafe3b4186f6b6457e060405160405180910390a35050565b600073ffffffffffffffffffffffffffffffffffffffff168273ffffffffffffffffffffffffffffffffffffffff160361106357816040517f5b08ba1800000000000000000000000000000000000000000000000000000000815260040161105a9190611c11565b60405180910390fd5b80600560008573ffffffffffffffffffffffffffffffffffffffff1673ffffffffffffffffffffffffffffffffffffffff16815260200190815260200160002060008473ffffffffffffffffffffffffffffffffffffffff1673ffffffffffffffffffffffffffffffffffffffff16815260200190815260200160002060006101000a81548160ff0219169083151502179055508173ffffffffffffffffffffffffffffffffffffffff168373ffffffffffffffffffffffffffffffffffffffff167f17307eab39ab6107e8899845ad3d59bd9653f200f220920489ca2b5937696c31836040516111549190611aa0565b60405180910390a3505050565b60008373ffffffffffffffffffffffffffffffffffffffff163b1115611312578273ffffffffffffffffffffffffffffffffffffffff1663150b7a026111a5610c53565b8685856040518563ffffffff1660e01b81526004016111c794939291906121d5565b6020604051808303816000875af192505050801561120357506040513d601f19601f820116820180604052508101906112009190612236565b60015b611287573d8060008114611233576040519150601f19603f3d011682016040523d82523d6000602084013e611238565b606091505b50600081510361127f57836040517f64a0ae920000000000000000000000000000000000000000000000000000000081526004016112769190611c11565b60405180910390fd5b805181602001fd5b63150b7a0260e01b7bffffffffffffffffffffffffffffffffffffffffffffffffffffffff1916817bffffffffffffffffffffffffffffffffffffffffffffffffffffffff19161461131057836040517f64a0ae920000000000000000000000000000000000000000000000000000000081526004016113079190611c11565b60405180910390fd5b505b50505050565b606060405180602001604052806000815250905090565b60606000600161133e846116df565b01905060008167ffffffffffffffff81111561135d5761135c611db8565b5b6040519080825280601f01601f19166020018201604052801561138f5781602001600182028036833780820191505090505b509050600082602001820190505b6001156113f2578080600190039150507f3031323334353637383961626364656600000000000000000000000000000000600a86061a8153600a85816113e6576113e5612263565b5b0494506000850361139d575b819350505050919050565b60006002600083815260200190815260200160002060009054906101000a900473ffffffffffffffffffffffffffffffffffffffff169050919050565b80806114735750600073ffffffffffffffffffffffffffffffffffffffff168273ffffffffffffffffffffffffffffffffffffffff1614155b156115a757600061148384610b8e565b9050600073ffffffffffffffffffffffffffffffffffffffff168373ffffffffffffffffffffffffffffffffffffffff16141580156114ee57508273ffffffffffffffffffffffffffffffffffffffff168173ffffffffffffffffffffffffffffffffffffffff1614155b801561150157506114ff8184610a0a565b155b1561154357826040517fa9fbf51f00000000000000000000000000000000000000000000000000000000815260040161153a9190611c11565b60405180910390fd5b81156115a557838573ffffffffffffffffffffffffffffffffffffffff168273ffffffffffffffffffffffffffffffffffffffff167f8c5be1e5ebec7d5bd14f71427d1e84f3dd0314c0f7b2291e5b200ac8c7c3b92560405160405180910390a45b505b836004600085815260200190815260200160002060006101000a81548173ffffffffffffffffffffffffffffffffffffffff021916908373ffffffffffffffffffffffffffffffffffffffff16021790555050505050565b61160a838383611832565b6116be57600073ffffffffffffffffffffffffffffffffffffffff168373ffffffffffffffffffffffffffffffffffffffff160361167f57806040517f7e2732890000000000000000000000000000000000000000000000000000000081526004016116769190611d27565b60405180910390fd5b81816040517f177e802f0000000000000000000000000000000000000000000000000000000081526004016116b5929190612292565b60405180910390fd5b505050565b6116cd83836118f3565b6116da6000848484611161565b505050565b600080600090507a184f03e93ff9f4daa797ed6e38ed64bf6a1f010000000000000000831061173d577a184f03e93ff9f4daa797ed6e38ed64bf6a1f010000000000000000838161173357611732612263565b5b0492506040810190505b6d04ee2d6d415b85acef8100000000831061177a576d04ee2d6d415b85acef810000000083816117705761176f612263565b5b0492506020810190505b662386f26fc1000083106117a957662386f26fc10000838161179f5761179e612263565b5b0492506010810190505b6305f5e10083106117d2576305f5e10083816117c8576117c7612263565b5b0492506008810190505b61271083106117f75761271083816117ed576117ec612263565b5b0492506004810190505b6064831061181a57606483816118105761180f612263565b5b0492506002810190505b600a8310611829576001810190505b80915050919050565b60008073ffffffffffffffffffffffffffffffffffffffff168373ffffffffffffffffffffffffffffffffffffffff16141580156118ea57508273ffffffffffffffffffffffffffffffffffffffff168473ffffffffffffffffffffffffffffffffffffffff1614806118ab57506118aa8484610a0a565b5b806118e957508273ffffffffffffffffffffffffffffffffffffffff166118d183610c16565b73ffffffffffffffffffffffffffffffffffffffff16145b5b90509392505050565b600073ffffffffffffffffffffffffffffffffffffffff168273ffffffffffffffffffffffffffffffffffffffff16036119655760006040517f64a0ae9200000000000000000000000000000000000000000000000000000000815260040161195c9190611c11565b60405180910390fd5b600061197383836000610cf4565b9050600073ffffffffffffffffffffffffffffffffffffffff168173ffffffffffffffffffffffffffffffffffffffff16146119e75760006040517f73c6ac6e0000000000000000000000000000000000000000000000000000000081526004016119de9190611c11565b60405180910390fd5b505050565b6000604051905090565b600080fd5b600080fd5b60007fffffffff0000000000000000000000000000000000000000000000000000000082169050919050565b611a3581611a00565b8114611a4057600080fd5b50565b600081359050611a5281611a2c565b92915050565b600060208284031215611a6e57611a6d6119f6565b5b6000611a7c84828501611a43565b91505092915050565b60008115159050919050565b611a9a81611a85565b82525050565b6000602082019050611ab56000830184611a91565b92915050565b600081519050919050565b600082825260208201905092915050565b60005b83811015611af5578082015181840152602081019050611ada565b60008484015250505050565b6000601f19601f8301169050919050565b6000611b1d82611abb565b611b278185611ac6565b9350611b37818560208601611ad7565b611b4081611b01565b840191505092915050565b60006020820190508181036000830152611b658184611b12565b905092915050565b6000819050919050565b611b8081611b6d565b8114611b8b57600080fd5b50565b600081359050611b9d81611b77565b92915050565b600060208284031215611bb957611bb86119f6565b5b6000611bc784828501611b8e565b91505092915050565b600073ffffffffffffffffffffffffffffffffffffffff82169050919050565b6000611bfb82611bd0565b9050919050565b611c0b81611bf0565b82525050565b6000602082019050611c266000830184611c02565b92915050565b611c3581611bf0565b8114611c4057600080fd5b50565b600081359050611c5281611c2c565b92915050565b60008060408385031215611c6f57611c6e6119f6565b5b6000611c7d85828601611c43565b9250506020611c8e85828601611b8e565b9150509250929050565b600060208284031215611cae57611cad6119f6565b5b6000611cbc84828501611c43565b91505092915050565b600080600060608486031215611cde57611cdd6119f6565b5b6000611cec86828701611c43565b9350506020611cfd86828701611c43565b9250506040611d0e86828701611b8e565b9150509250925092565b611d2181611b6d565b82525050565b6000602082019050611d3c6000830184611d18565b92915050565b611d4b81611a85565b8114611d5657600080fd5b50565b600081359050611d6881611d42565b92915050565b60008060408385031215611d8557611d846119f6565b5b6000611d9385828601611c43565b9250506020611da485828601611d59565b9150509250929050565b600080fd5b600080fd5b7f4e487b7100000000000000000000000000000000000000000000000000000000600052604160045260246000fd5b611df082611b01565b810181811067ffffffffffffffff82111715611e0f57611e0e611db8565b5b80604052505050565b6000611e226119ec565b9050611e2e8282611de7565b919050565b600067ffffffffffffffff821115611e4e57611e4d611db8565b5b611e5782611b01565b9050602081019050919050565b82818337600083830152505050565b6000611e86611e8184611e33565b611e18565b905082815260208101848484011115611ea257611ea1611db3565b5b611ead848285611e64565b509392505050565b600082601f830112611eca57611ec9611dae565b5b8135611eda848260208601611e73565b91505092915050565b60008060008060808587031215611efd57611efc6119f6565b5b6000611f0b87828801611c43565b9450506020611f1c87828801611c43565b9350506040611f2d87828801611b8e565b925050606085013567ffffffffffffffff811115611f4e57611f4d6119fb565b5b611f5a87828801611eb5565b91505092959194509250565b60008060408385031215611f7d57611f7c6119f6565b5b6000611f8b85828601611c43565b9250506020611f9c85828601611c43565b9150509250929050565b7f4e487b7100000000000000000000000000000000000000000000000000000000600052602260045260246000fd5b60006002820490506001821680611fed57607f821691505b60208210810361200057611fff611fa6565b5b50919050565b600060608201905061201b6000830186611c02565b6120286020830185611d18565b6120356040830184611c02565b949350505050565b7f4e6f7420617574686f72697a656420746f206d696e7400000000000000000000600082015250565b6000612073601683611ac6565b915061207e8261203d565b602082019050919050565b600060208201905081810360008301526120a281612066565b9050919050565b7f4e487b7100000000000000000000000000000000000000000000000000000000600052601160045260246000fd5b60006120e382611b6d565b91507fffffffffffffffffffffffffffffffffffffffffffffffffffffffffffffffff8203612115576121146120a9565b5b600182019050919050565b600081905092915050565b600061213682611abb565b6121408185612120565b9350612150818560208601611ad7565b80840191505092915050565b6000612168828561212b565b9150612174828461212b565b91508190509392505050565b600081519050919050565b600082825260208201905092915050565b60006121a782612180565b6121b1818561218b565b93506121c1818560208601611ad7565b6121ca81611b01565b840191505092915050565b60006080820190506121ea6000830187611c02565b6121f76020830186611c02565b6122046040830185611d18565b8181036060830152612216818461219c565b905095945050505050565b60008151905061223081611a2c565b92915050565b60006020828403121561224c5761224b6119f6565b5b600061225a84828501612221565b91505092915050565b7f4e487b7100000000000000000000000000000000000000000000000000000000600052601260045260246000fd5b60006040820190506122a76000830185611c02565b6122b46020830184611d18565b939250505056fea2646970667358221220215ce9159bd97346a152889c1587ae9063ee473363447b87a289877e46ff921164736f6c63430008140033",
  "linkReferences": {},
  "deployedLinkReferences": {}
}